{
  "_format": "hh-sol-artifact-1",
  "contractName": "ERC20Mock",
  "sourceName": "src/testing/ERC20Mock.sol",
  "abi": [
    {
      "inputs": [
        {
          "internalType": "string",
          "name": "name",
          "type": "string"
        },
        {
          "internalType": "string",
          "name": "symbol",
          "type": "string"
        }
      ],
      "stateMutability": "nonpayable",
      "type": "constructor"
    },
    {
      "anonymous": false,
      "inputs": [
        {
          "indexed": true,
          "internalType": "address",
          "name": "owner",
          "type": "address"
        },
        {
          "indexed": true,
          "internalType": "address",
          "name": "spender",
          "type": "address"
        },
        {
          "indexed": false,
          "internalType": "uint256",
          "name": "value",
          "type": "uint256"
        }
      ],
      "name": "Approval",
      "type": "event"
    },
    {
      "anonymous": false,
      "inputs": [
        {
          "indexed": true,
          "internalType": "address",
          "name": "from",
          "type": "address"
        },
        {
          "indexed": true,
          "internalType": "address",
          "name": "to",
          "type": "address"
        },
        {
          "indexed": false,
          "internalType": "uint256",
          "name": "value",
          "type": "uint256"
        }
      ],
      "name": "Transfer",
      "type": "event"
    },
    {
      "inputs": [],
      "name": "DOMAIN_SEPARATOR",
      "outputs": [
        {
          "internalType": "bytes32",
          "name": "",
          "type": "bytes32"
        }
      ],
      "stateMutability": "view",
      "type": "function"
    },
    {
      "inputs": [
        {
          "internalType": "address",
          "name": "",
          "type": "address"
        },
        {
          "internalType": "address",
          "name": "",
          "type": "address"
        }
      ],
      "name": "allowance",
      "outputs": [
        {
          "internalType": "uint256",
          "name": "",
          "type": "uint256"
        }
      ],
      "stateMutability": "view",
      "type": "function"
    },
    {
      "inputs": [
        {
          "internalType": "address",
          "name": "spender",
          "type": "address"
        },
        {
          "internalType": "uint256",
          "name": "amount",
          "type": "uint256"
        }
      ],
      "name": "approve",
      "outputs": [
        {
          "internalType": "bool",
          "name": "",
          "type": "bool"
        }
      ],
      "stateMutability": "nonpayable",
      "type": "function"
    },
    {
      "inputs": [
        {
          "internalType": "address",
          "name": "",
          "type": "address"
        }
      ],
      "name": "balanceOf",
      "outputs": [
        {
          "internalType": "uint256",
          "name": "",
          "type": "uint256"
        }
      ],
      "stateMutability": "view",
      "type": "function"
    },
    {
      "inputs": [
        {
          "internalType": "address",
          "name": "from",
          "type": "address"
        },
        {
          "internalType": "uint256",
          "name": "amount",
          "type": "uint256"
        }
      ],
      "name": "burn",
      "outputs": [],
      "stateMutability": "nonpayable",
      "type": "function"
    },
    {
      "inputs": [],
      "name": "decimals",
      "outputs": [
        {
          "internalType": "uint8",
          "name": "",
          "type": "uint8"
        }
      ],
      "stateMutability": "view",
      "type": "function"
    },
    {
      "inputs": [
        {
          "internalType": "address",
          "name": "to",
          "type": "address"
        },
        {
          "internalType": "uint256",
          "name": "amount",
          "type": "uint256"
        }
      ],
      "name": "mint",
      "outputs": [],
      "stateMutability": "nonpayable",
      "type": "function"
    },
    {
      "inputs": [],
      "name": "name",
      "outputs": [
        {
          "internalType": "string",
          "name": "",
          "type": "string"
        }
      ],
      "stateMutability": "view",
      "type": "function"
    },
    {
      "inputs": [
        {
          "internalType": "address",
          "name": "",
          "type": "address"
        }
      ],
      "name": "nonces",
      "outputs": [
        {
          "internalType": "uint256",
          "name": "",
          "type": "uint256"
        }
      ],
      "stateMutability": "view",
      "type": "function"
    },
    {
      "inputs": [
        {
          "internalType": "address",
          "name": "owner",
          "type": "address"
        },
        {
          "internalType": "address",
          "name": "spender",
          "type": "address"
        },
        {
          "internalType": "uint256",
          "name": "value",
          "type": "uint256"
        },
        {
          "internalType": "uint256",
          "name": "deadline",
          "type": "uint256"
        },
        {
          "internalType": "uint8",
          "name": "v",
          "type": "uint8"
        },
        {
          "internalType": "bytes32",
          "name": "r",
          "type": "bytes32"
        },
        {
          "internalType": "bytes32",
          "name": "s",
          "type": "bytes32"
        }
      ],
      "name": "permit",
      "outputs": [],
      "stateMutability": "nonpayable",
      "type": "function"
    },
    {
      "inputs": [],
      "name": "symbol",
      "outputs": [
        {
          "internalType": "string",
          "name": "",
          "type": "string"
        }
      ],
      "stateMutability": "view",
      "type": "function"
    },
    {
      "inputs": [],
      "name": "totalSupply",
      "outputs": [
        {
          "internalType": "uint256",
          "name": "",
          "type": "uint256"
        }
      ],
      "stateMutability": "view",
      "type": "function"
    },
    {
      "inputs": [
        {
          "internalType": "address",
          "name": "to",
          "type": "address"
        },
        {
          "internalType": "uint256",
          "name": "amount",
          "type": "uint256"
        }
      ],
      "name": "transfer",
      "outputs": [
        {
          "internalType": "bool",
          "name": "",
          "type": "bool"
        }
      ],
      "stateMutability": "nonpayable",
      "type": "function"
    },
    {
      "inputs": [
        {
          "internalType": "address",
          "name": "from",
          "type": "address"
        },
        {
          "internalType": "address",
          "name": "to",
          "type": "address"
        },
        {
          "internalType": "uint256",
          "name": "amount",
          "type": "uint256"
        }
      ],
      "name": "transferFrom",
      "outputs": [
        {
          "internalType": "bool",
          "name": "",
          "type": "bool"
        }
      ],
      "stateMutability": "nonpayable",
      "type": "function"
    }
  ],
  "bytecode": "0x60e0604090808252346200042c57620010fa803803809162000022828562000431565b8339810182828203126200042c5781516001600160401b0393908481116200042c57826200005291850162000455565b92602092838201518681116200042c576200006e920162000455565b835193858511620004165760009480620000898754620004cb565b92601f93848111620003c5575b5086908483116001146200035d57889262000351575b50508160011b916000199060031b1c19161785555b8151908682116200033d578190600193620000dd8554620004cb565b828111620002e8575b50869183116001146200028457879262000278575b5050600019600383901b1c191690821b1781555b60126080524660a052815184549181866200012a85620004cb565b92838352878301958882821691826000146200025857505060011462000218575b506200015a9250038262000431565b519020928151928301937f8b73c3c69bb8fe3d512ecc4cf759cc79239f7b179b0ffacaa9a75d522b39400f8552828401527fc89efdaa54c0f20c7adf612882df0950f5a951637e0307cdcb4c672f298b8bc660608401524660808401523060a084015260a0835260c08301948386109086111762000204575083905251902060c052610bf19081620005098239608051816106c1015260a05181610a19015260c05181610a400152f35b634e487b7160e01b81526041600452602490fd5b8791508880528189209089915b8583106200023f5750506200015a9350820101386200014b565b8054838801850152869450899390920191810162000225565b60ff191688526200015a95151560051b85010192503891506200014b9050565b015190503880620000fb565b8488528688208594509190601f198416895b89828210620002d15750508411620002b7575b505050811b0181556200010f565b015160001960f88460031b161c19169055388080620002a9565b838501518655889790950194938401930162000296565b909192508488528688208380860160051c82019289871062000333575b91869588929594930160051c01915b82811062000324575050620000e6565b8a815586955087910162000314565b9250819262000305565b634e487b7160e01b86526041600452602486fd5b015190503880620000ac565b8880528789209250601f198416895b89828210620003ae57505090846001959493921062000394575b505050811b018555620000c1565b015160001960f88460031b161c1916905538808062000386565b60018596829396860151815501950193016200036c565b9091508780528688208480850160051c8201928986106200040c575b9085949392910160051c01905b818110620003fd575062000096565b898155849350600101620003ee565b92508192620003e1565b634e487b7160e01b600052604160045260246000fd5b600080fd5b601f909101601f19168101906001600160401b038211908210176200041657604052565b919080601f840112156200042c5782516001600160401b0381116200041657602090604051926200049083601f19601f850116018562000431565b8184528282870101116200042c5760005b818110620004b757508260009394955001015290565b8581018301518482018401528201620004a1565b90600182811c92168015620004fd575b6020831014620004e757565b634e487b7160e01b600052602260045260246000fd5b91607f1691620004db56fe6080604081815260048036101561001557600080fd5b600092833560e01c90816306fdde031461086257508063095ea7b3146107f357806318160ddd146107d457806323b872dd146106e5578063313ce567146106a75780633644e5151461068357806340c10f19146105f857806370a08231146105c15780637ecebe001461058a57806395d89b41146104a4578381639dc29fac1461042f57508063a9059cbb146103ad578063d505accf1461010a5763dd62ed3e146100bf57600080fd5b3461010657816003193601126101065760209282916100dc6109c0565b6100e46109db565b916001600160a01b038092168452865283832091168252845220549051908152f35b8280fd5b509190346103a95760e06003193601126103a9576101266109c0565b9061012f6109db565b91604435606435926084359260ff84168094036103a55742851061034857610155610a14565b956001600160a01b038092169586895260209560058752848a209889549960018b01905585519285898501957f6e71edae12b1b97f4d1f60370fef10105fa2faae0126114a169c64845d6126c987528b89870152169a8b606086015288608086015260a085015260c084015260c0835260e0830167ffffffffffffffff948482108683111761033457818852845190206101008501927f19010000000000000000000000000000000000000000000000000000000000008452610102860152610122850152604281526101608401948186109086111761032157848752519020835261018082015260a4356101a082015260c4356101c0909101528780528490889060809060015afa1561031757865116968715158061030e575b156102b35786977f8c5be1e5ebec7d5bd14f71427d1e84f3dd0314c0f7b2291e5b200ac8c7c3b9259596975283528087208688528352818188205551908152a380f35b8360649251917f08c379a0000000000000000000000000000000000000000000000000000000008352820152600e60248201527f494e56414c49445f5349474e45520000000000000000000000000000000000006044820152fd5b50848814610270565b81513d88823e3d90fd5b60248c60418f634e487b7160e01b835252fd5b5060248c60418f634e487b7160e01b835252fd5b60648860208451917f08c379a0000000000000000000000000000000000000000000000000000000008352820152601760248201527f5045524d49545f444541444c494e455f455850495245440000000000000000006044820152fd5b8680fd5b5080fd5b5050346103a957806003193601126103a9576020916103ca6109c0565b826001600160a01b0360243592338552600387528285206103ec8582546109f1565b90551692838152600386522081815401905582519081527fddf252ad1be2c89b69c2b068fc378daa952ba7f163c4a11628f55a4df523b3ef843392a35160018152f35b8084346104a157806003193601126104a1577fddf252ad1be2c89b69c2b068fc378daa952ba7f163c4a11628f55a4df523b3ef602061046c6109c0565b6001600160a01b036024359116938486526003835280862061048f8382546109f1565b9055816002540360025551908152a380f35b50fd5b8284346105875780600319360112610587578151908060018054906104c882610905565b808652926020926001811690811561055a5750600114610502575b6104fe86886104f48289038361093f565b5191829182610978565b0390f35b9350600184527fb10e2d527612073b26eecdfd717e6a320cf44b4afac2b0732d9fcbe2b7fa0cf65b838510610547575050505081016020016104f4826104fe866104e3565b805486860184015293820193810161052a565b6104fe989650879450602093506104f495925060ff1991501682840152151560051b8201019294866104e3565b80fd5b5050346103a95760206003193601126103a957806020926001600160a01b036105b16109c0565b1681526005845220549051908152f35b5050346103a95760206003193601126103a957806020926001600160a01b036105e86109c0565b1681526003845220549051908152f35b50346101065781600319360112610106576106116109c0565b6024359160025490838201809211610670575084926001600160a01b037fddf252ad1be2c89b69c2b068fc378daa952ba7f163c4a11628f55a4df523b3ef9360209360025516948585526003835280852082815401905551908152a380f35b856011602492634e487b7160e01b835252fd5b5050346103a957816003193601126103a9576020906106a0610a14565b9051908152f35b5050346103a957816003193601126103a9576020905160ff7f0000000000000000000000000000000000000000000000000000000000000000168152f35b509134610587576060600319360112610587576107006109c0565b7fddf252ad1be2c89b69c2b068fc378daa952ba7f163c4a11628f55a4df523b3ef6107296109db565b94604435856001600160a01b0380951694858752602098848a958652838920338a52865283892054857fffffffffffffffffffffffffffffffffffffffffffffffffffffffffffffffff82036107b1575b505050868852600385528288206107928582546109f1565b9055169586815260038452208181540190558551908152a35160018152f35b6107ba916109f1565b90888a528652838920338a5286528389205538808561077a565b5050346103a957816003193601126103a9576020906002549051908152f35b503461010657816003193601126101065760209261080f6109c0565b918360243592839233825287526001600160a01b038282209516948582528752205582519081527f8c5be1e5ebec7d5bd14f71427d1e84f3dd0314c0f7b2291e5b200ac8c7c3b925843392a35160018152f35b8390853461058757806003193601126105875780548161088182610905565b8085529160209160019182811690811561055a57506001146108ae576104fe86886104f48289038361093f565b80809550527f290decd9548b62a8d60345a988386fc84ba6bc95484008f6362f93160ef3e5635b8385106108f2575050505081016020016104f4826104fe866104e3565b80548686018401529382019381016108d5565b90600182811c92168015610935575b602083101461091f57565b634e487b7160e01b600052602260045260246000fd5b91607f1691610914565b90601f601f19910116810190811067ffffffffffffffff82111761096257604052565b634e487b7160e01b600052604160045260246000fd5b60208082528251818301819052939260005b8581106109ac57505050601f19601f8460006040809697860101520116010190565b81810183015184820160400152820161098a565b600435906001600160a01b03821682036109d657565b600080fd5b602435906001600160a01b03821682036109d657565b919082039182116109fe57565b634e487b7160e01b600052601160045260246000fd5b6000467f000000000000000000000000000000000000000000000000000000000000000003610a6257507f000000000000000000000000000000000000000000000000000000000000000090565b60405181548291610a7282610905565b808252816020948582019460019087600182169182600014610b9d575050600114610b44575b50610aa59250038261093f565b51902091604051918201927f8b73c3c69bb8fe3d512ecc4cf759cc79239f7b179b0ffacaa9a75d522b39400f845260408301527fc89efdaa54c0f20c7adf612882df0950f5a951637e0307cdcb4c672f298b8bc660608301524660808301523060a083015260a0825260c082019082821067ffffffffffffffff831117610b30575060405251902090565b80634e487b7160e01b602492526041600452fd5b87805286915087907f290decd9548b62a8d60345a988386fc84ba6bc95484008f6362f93160ef3e5635b858310610b85575050610aa5935082010138610a98565b80548388018501528694508893909201918101610b6e565b60ff19168852610aa595151560051b8501019250389150610a98905056fea26469706673582212205160e13b92469d09402c327237fe3b73d641070b30c2ac7b4c63f573cdebc7c864736f6c63430008180033",
  "linkReferences": {},
  "deployedLinkReferences": {}
}