{
  "_format": "hh-sol-artifact-1",
  "contractName": "StdInvariant",
  "sourceName": "forge-std/StdInvariant.sol",
  "abi": [
    {
      "inputs": [],
      "name": "excludeArtifacts",
      "outputs": [
        {
          "internalType": "string[]",
          "name": "excludedArtifacts_",
          "type": "string[]"
        }
      ],
      "stateMutability": "view",
      "type": "function"
    },
    {
      "inputs": [],
      "name": "excludeContracts",
      "outputs": [
        {
          "internalType": "address[]",
          "name": "excludedContracts_",
          "type": "address[]"
        }
      ],
      "stateMutability": "view",
      "type": "function"
    },
    {
      "inputs": [],
      "name": "excludeSenders",
      "outputs": [
        {
          "internalType": "address[]",
          "name": "excludedSenders_",
          "type": "address[]"
        }
      ],
      "stateMutability": "view",
      "type": "function"
    },
    {
      "inputs": [],
      "name": "targetArtifactSelectors",
      "outputs": [
        {
          "components": [
            {
              "internalType": "address",
              "name": "addr",
              "type": "address"
            },
            {
              "internalType": "bytes4[]",
              "name": "selectors",
              "type": "bytes4[]"
            }
          ],
          "internalType": "struct StdInvariant.FuzzSelector[]",
          "name": "targetedArtifactSelectors_",
          "type": "tuple[]"
        }
      ],
      "stateMutability": "view",
      "type": "function"
    },
    {
      "inputs": [],
      "name": "targetArtifacts",
      "outputs": [
        {
          "internalType": "string[]",
          "name": "targetedArtifacts_",
          "type": "string[]"
        }
      ],
      "stateMutability": "view",
      "type": "function"
    },
    {
      "inputs": [],
      "name": "targetContracts",
      "outputs": [
        {
          "internalType": "address[]",
          "name": "targetedContracts_",
          "type": "address[]"
        }
      ],
      "stateMutability": "view",
      "type": "function"
    },
    {
      "inputs": [],
      "name": "targetSelectors",
      "outputs": [
        {
          "components": [
            {
              "internalType": "address",
              "name": "addr",
              "type": "address"
            },
            {
              "internalType": "bytes4[]",
              "name": "selectors",
              "type": "bytes4[]"
            }
          ],
          "internalType": "struct StdInvariant.FuzzSelector[]",
          "name": "targetedSelectors_",
          "type": "tuple[]"
        }
      ],
      "stateMutability": "view",
      "type": "function"
    },
    {
      "inputs": [],
      "name": "targetSenders",
      "outputs": [
        {
          "internalType": "address[]",
          "name": "targetedSenders_",
          "type": "address[]"
        }
      ],
      "stateMutability": "view",
      "type": "function"
    }
  ],
  "bytecode": "0x6080806040523461001657610b71908161001c8239f35b600080fdfe608080604052600490600436101561001657600080fd5b600091823560e01c9182631ed7831c14610895575081633e5e3c23146108095781633f7286f41461077d57816366d9a9a0146105f157816385226c81146104ba578163916a17c614610250578163b5508aa914610119575063e20c9f711461007d57600080fd5b3461011657806003193601126101165760405181548082528280526020808301937f290decd9548b62a8d60345a988386fc84ba6bc95484008f6362f93160ef3e56392915b8282106100e9576100e5856100d981890382610b00565b60405191829182610922565b0390f35b835473ffffffffffffffffffffffffffffffffffffffff16865294850194600193840193909101906100c2565b80fd5b823461011657806003193601126101165760045461013681610b23565b916101446040519384610b00565b818352600481528060207f8a35acfbc15ff81a39ae7d344fd709f28e8600b4aa8c65c6b64bfe7fe36bd19b8186015b85841061018857604051806100e58982610a3b565b604051859183549160019280841c908481168015610246575b8883108114610232578284528894939291811561021657506001146101de575b506101d0816001960382610b00565b815201920193019290610173565b868a52838a20955089905b8082106101ff57508101830194506101d06101c1565b8654838301860152958501958894909101906101e9565b60ff19168584015250151560051b8101830194506101d06101c1565b5060248a60228f634e487b7160e01b835252fd5b91607f16916101a1565b823461011657806003193601126101165760075461026d81610b23565b9061027b6040519283610b00565b80825260078352827fa66cc928b5edb82af9bd49922954155ab7b0942694bea4ce44661d9a8736c688602084015b8383106102be57604051806100e58782610974565b6040516102ca81610ace565b825473ffffffffffffffffffffffffffffffffffffffff1681526040516001840180548083529089526020808a20908301918a915b81600784011061044a578460019794600297946020979461036294549181811061042e575b818110610412575b8181106103f6575b8181106103da575b8181106103be575b8181106103a2575b818110610388575b10610374575b500382610b00565b838201528152019201920191906102a9565b6001600160e01b031916815286018e61035a565b828a1b6001600160e01b0319168452928901928b01610354565b92898c916001600160e01b03198560401b16815201930161034c565b92898c916001600160e01b03198560601b168152019301610344565b92898c916001600160e01b03198560801b16815201930161033c565b92898c916001600160e01b03198560a01b168152019301610334565b92898c916001600160e01b03198560c01b16815201930161032c565b92898c916001600160e01b03198560e01b168152019301610324565b92600161010060089286546001600160e01b031990818160e01b16835260c08282821b16602085015260a08383821b166040860152606084846080928282851b16818a01521b1690860152838360401b1690850152828260201b16908401521660e08201520194019201916102ff565b823461011657806003193601126101165760058054906104d982610b23565b926104e76040519485610b00565b8284526005815260207f036b6384b5eca791c62761152d0c79bb0604c104a5fb6f4eb0703f3154bb3db0828287015b86851061052b57604051806100e58a82610a3b565b604051829184549160019280841c9084811680156105e7575b89831081146105d457828452899493929181156105b95750600114610581575b50610573816001960382610b00565b815201930194019391610516565b878752838720955086905b8082106105a25750810183019450610573610564565b86548383018601529585019589949091019061058c565b60ff1916858401525015158a1b810183019450610573610564565b634e487b7160e01b885260228f52602488fd5b91607f1691610544565b823461011657806003193601126101165760065461060e81610b23565b9061061c6040519283610b00565b80825260068352827ff652222313e28459528d920b65115c16c04f3efc82aaedc97be59f3f377c0d3f602084015b83831061065f57604051806100e58782610974565b60405161066b81610ace565b825473ffffffffffffffffffffffffffffffffffffffff1681526040516001840180548083529089526020808a20908301918a915b81600784011061070d57846001979460029794602097946106fb94549181811061042e57818110610412578181106103f6578181106103da578181106103be578181106103a257818110610388571061037457500382610b00565b8382015281520192019201919061064a565b92600161010060089286546001600160e01b031990818160e01b16835260c08282821b16602085015260a08383821b166040860152606084846080928282851b16818a01521b1690860152838360401b1690850152828260201b16908401521660e08201520194019201916106a0565b8234610116578060031936011261011657604051600280548083529083526020808301937f405787fa12a823e0f2b7631cc41b3ba8828b3321ca811111fa75cd3aa3bb5ace92915b8282106107dc576100e5856100d981890382610b00565b835473ffffffffffffffffffffffffffffffffffffffff16865294850194600193840193909101906107c5565b8234610116578060031936011261011657604051600380548083529083526020808301937fc2575a0e9e593c00f959f8c92f12db2869c3395a3b0502d05e2516446f71f85b92915b828210610868576100e5856100d981890382610b00565b835473ffffffffffffffffffffffffffffffffffffffff1686529485019460019384019390910190610851565b83903461091e578160031936011261091e57600180548083528184526020808401947fb10e2d527612073b26eecdfd717e6a320cf44b4afac2b0732d9fcbe2b7fa0cf69392915b8282106108f3576100e5866100d9818a0382610b00565b845473ffffffffffffffffffffffffffffffffffffffff1687529586019593830193908301906108dc565b5080fd5b602090602060408183019282815285518094520193019160005b82811061094a575050505090565b835173ffffffffffffffffffffffffffffffffffffffff168552938101939281019260010161093c565b6020808201908083528351809252604092604081018260408560051b840101960194600080935b8685106109ad57505050505050505090565b909192939488603f198383999a9b030186528951826060818885019373ffffffffffffffffffffffffffffffffffffffff8151168652015193888382015284518094520192019085905b808210610a185750505090806001929a01950195019396959492919061099b565b919380600192946001600160e01b031987511681520194019201899392916109f7565b6020808201818352835180915260408301918060408360051b860101950193600080915b848310610a70575050505050505090565b90919293949596603f19828203018752848851805190818452855b828110610aba5750508083018201859052601f01601f1916909101810197810196019493926001019190610a5f565b818101840151858201850152889301610a8b565b6040810190811067ffffffffffffffff821117610aea57604052565b634e487b7160e01b600052604160045260246000fd5b90601f601f19910116810190811067ffffffffffffffff821117610aea57604052565b67ffffffffffffffff8111610aea5760051b6020019056fea2646970667358221220a6ab2345e7c80bfd52844427b685dfde2d8e6d6c0df99b6611550d2a02edd90c64736f6c63430008180033",
  "linkReferences": {},
  "deployedLinkReferences": {}
}